{
  "contractName": "BiCropSwap",
  "abi": [
    {
      "inputs": [
        {
          "internalType": "contract ISwapRouter",
          "name": "_swapRouter",
          "type": "address"
        }
      ],
      "stateMutability": "nonpayable",
      "type": "constructor"
    },
    {
      "inputs": [],
      "name": "BIC",
      "outputs": [
        {
          "internalType": "address",
          "name": "",
          "type": "address"
        }
      ],
      "stateMutability": "view",
      "type": "function"
    },
    {
      "inputs": [],
      "name": "LINK",
      "outputs": [
        {
          "internalType": "address",
          "name": "",
          "type": "address"
        }
      ],
      "stateMutability": "view",
      "type": "function"
    },
    {
      "inputs": [],
      "name": "linkToken",
      "outputs": [
        {
          "internalType": "contract IERC20",
          "name": "",
          "type": "address"
        }
      ],
      "stateMutability": "view",
      "type": "function"
    },
    {
      "inputs": [],
      "name": "poolFee",
      "outputs": [
        {
          "internalType": "uint24",
          "name": "",
          "type": "uint24"
        }
      ],
      "stateMutability": "view",
      "type": "function"
    },
    {
      "inputs": [],
      "name": "swapRouter",
      "outputs": [
        {
          "internalType": "contract ISwapRouter",
          "name": "",
          "type": "address"
        }
      ],
      "stateMutability": "view",
      "type": "function"
    },
    {
      "inputs": [
        {
          "internalType": "uint256",
          "name": "amountIn",
          "type": "uint256"
        }
      ],
      "name": "swapExactInputSingle",
      "outputs": [
        {
          "internalType": "uint256",
          "name": "amountOut",
          "type": "uint256"
        }
      ],
      "stateMutability": "nonpayable",
      "type": "function"
    },
    {
      "inputs": [
        {
          "internalType": "uint256",
          "name": "amountOut",
          "type": "uint256"
        },
        {
          "internalType": "uint256",
          "name": "amountInMaximum",
          "type": "uint256"
        }
      ],
      "name": "swapExactOutputSingle",
      "outputs": [
        {
          "internalType": "uint256",
          "name": "amountIn",
          "type": "uint256"
        }
      ],
      "stateMutability": "nonpayable",
      "type": "function"
    }
  ],
  "bytecode": "0x60a060405273326c977e6efc84e512bb9c30f76e30c160ed06fb6000806101000a81548173ffffffffffffffffffffffffffffffffffffffff021916908373ffffffffffffffffffffffffffffffffffffffff1602179055503480156200006557600080fd5b50604051620011d1380380620011d183398181016040528101906200008b919062000144565b8073ffffffffffffffffffffffffffffffffffffffff1660808173ffffffffffffffffffffffffffffffffffffffff16815250505062000176565b600080fd5b600073ffffffffffffffffffffffffffffffffffffffff82169050919050565b6000620000f882620000cb565b9050919050565b60006200010c82620000eb565b9050919050565b6200011e81620000ff565b81146200012a57600080fd5b50565b6000815190506200013e8162000113565b92915050565b6000602082840312156200015d576200015c620000c6565b5b60006200016d848285016200012d565b91505092915050565b60805161101c620001b5600039600081816101fb015281816103450152818161040101528181610464015281816105ad015261066b015261101c6000f3fe608060405234801561001057600080fd5b506004361061007d5760003560e01c806373bd43ad1161005b57806373bd43ad146100dc578063a7b384821461010c578063c31c9c071461012a578063c4b69a18146101485761007d565b8063089fe6aa146100825780631b6b6d23146100a057806357970e93146100be575b600080fd5b61008a610178565b604051610097919061098b565b60405180910390f35b6100a861017e565b6040516100b591906109e7565b60405180910390f35b6100c6610196565b6040516100d39190610a61565b60405180910390f35b6100f660048036038101906100f19190610ab7565b6101ba565b6040516101039190610af3565b60405180910390f35b6101146103e7565b60405161012191906109e7565b60405180910390f35b6101326103ff565b60405161013f9190610b2f565b60405180910390f35b610162600480360381019061015d9190610b4a565b610423565b60405161016f9190610af3565b60405180910390f35b610bb881565b73326c977e6efc84e512bb9c30f76e30c160ed06fb81565b60008054906101000a900473ffffffffffffffffffffffffffffffffffffffff1681565b60008060009054906101000a900473ffffffffffffffffffffffffffffffffffffffff1673ffffffffffffffffffffffffffffffffffffffff1663095ea7b37f0000000000000000000000000000000000000000000000000000000000000000846040518363ffffffff1660e01b8152600401610238929190610b8a565b6020604051808303816000875af1158015610257573d6000803e3d6000fd5b505050506040513d601f19601f8201168201806040525081019061027b9190610beb565b50600060405180610100016040528073326c977e6efc84e512bb9c30f76e30c160ed06fb73ffffffffffffffffffffffffffffffffffffffff16815260200173f9c4fe8e4d570a712ae40d8836fb64192ff32b5a73ffffffffffffffffffffffffffffffffffffffff168152602001610bb862ffffff1681526020013373ffffffffffffffffffffffffffffffffffffffff16815260200142815260200184815260200160008152602001600073ffffffffffffffffffffffffffffffffffffffff1681525090507f000000000000000000000000000000000000000000000000000000000000000073ffffffffffffffffffffffffffffffffffffffff1663414bf389826040518263ffffffff1660e01b815260040161039c9190610cf6565b6020604051808303816000875af11580156103bb573d6000803e3d6000fd5b505050506040513d601f19601f820116820180604052508101906103df9190610d27565b915050919050565b73f9c4fe8e4d570a712ae40d8836fb64192ff32b5a81565b7f000000000000000000000000000000000000000000000000000000000000000081565b60008060009054906101000a900473ffffffffffffffffffffffffffffffffffffffff1673ffffffffffffffffffffffffffffffffffffffff1663095ea7b37f0000000000000000000000000000000000000000000000000000000000000000846040518363ffffffff1660e01b81526004016104a1929190610b8a565b6020604051808303816000875af11580156104c0573d6000803e3d6000fd5b505050506040513d601f19601f820116820180604052508101906104e49190610beb565b50600060405180610100016040528073326c977e6efc84e512bb9c30f76e30c160ed06fb73ffffffffffffffffffffffffffffffffffffffff16815260200173f9c4fe8e4d570a712ae40d8836fb64192ff32b5a73ffffffffffffffffffffffffffffffffffffffff168152602001610bb862ffffff1681526020013373ffffffffffffffffffffffffffffffffffffffff168152602001428152602001858152602001848152602001600073ffffffffffffffffffffffffffffffffffffffff1681525090507f000000000000000000000000000000000000000000000000000000000000000073ffffffffffffffffffffffffffffffffffffffff1663db3e2198826040518263ffffffff1660e01b81526004016106049190610df6565b6020604051808303816000875af1158015610623573d6000803e3d6000fd5b505050506040513d601f19601f820116820180604052508101906106479190610d27565b9150828210156106bc5761069173326c977e6efc84e512bb9c30f76e30c160ed06fb7f000000000000000000000000000000000000000000000000000000000000000060006106c3565b6106bb73326c977e6efc84e512bb9c30f76e30c160ed06fb3384866106b69190610e41565b610818565b5b5092915050565b6000808473ffffffffffffffffffffffffffffffffffffffff1663095ea7b360e01b85856040516024016106f8929190610b8a565b604051602081830303815290604052907bffffffffffffffffffffffffffffffffffffffffffffffffffffffff19166020820180517bffffffffffffffffffffffffffffffffffffffffffffffffffffffff83818316178352505050506040516107629190610ee6565b6000604051808303816000865af19150503d806000811461079f576040519150601f19603f3d011682016040523d82523d6000602084013e6107a4565b606091505b50915091508180156107d257506000815114806107d15750808060200190518101906107d09190610beb565b5b5b610811576040517f08c379a000000000000000000000000000000000000000000000000000000000815260040161080890610f5a565b60405180910390fd5b5050505050565b6000808473ffffffffffffffffffffffffffffffffffffffff1663a9059cbb60e01b858560405160240161084d929190610b8a565b604051602081830303815290604052907bffffffffffffffffffffffffffffffffffffffffffffffffffffffff19166020820180517bffffffffffffffffffffffffffffffffffffffffffffffffffffffff83818316178352505050506040516108b79190610ee6565b6000604051808303816000865af19150503d80600081146108f4576040519150601f19603f3d011682016040523d82523d6000602084013e6108f9565b606091505b509150915081801561092757506000815114806109265750808060200190518101906109259190610beb565b5b5b610966576040517f08c379a000000000000000000000000000000000000000000000000000000000815260040161095d90610fc6565b60405180910390fd5b5050505050565b600062ffffff82169050919050565b6109858161096d565b82525050565b60006020820190506109a0600083018461097c565b92915050565b600073ffffffffffffffffffffffffffffffffffffffff82169050919050565b60006109d1826109a6565b9050919050565b6109e1816109c6565b82525050565b60006020820190506109fc60008301846109d8565b92915050565b6000819050919050565b6000610a27610a22610a1d846109a6565b610a02565b6109a6565b9050919050565b6000610a3982610a0c565b9050919050565b6000610a4b82610a2e565b9050919050565b610a5b81610a40565b82525050565b6000602082019050610a766000830184610a52565b92915050565b600080fd5b6000819050919050565b610a9481610a81565b8114610a9f57600080fd5b50565b600081359050610ab181610a8b565b92915050565b600060208284031215610acd57610acc610a7c565b5b6000610adb84828501610aa2565b91505092915050565b610aed81610a81565b82525050565b6000602082019050610b086000830184610ae4565b92915050565b6000610b1982610a2e565b9050919050565b610b2981610b0e565b82525050565b6000602082019050610b446000830184610b20565b92915050565b60008060408385031215610b6157610b60610a7c565b5b6000610b6f85828601610aa2565b9250506020610b8085828601610aa2565b9150509250929050565b6000604082019050610b9f60008301856109d8565b610bac6020830184610ae4565b9392505050565b60008115159050919050565b610bc881610bb3565b8114610bd357600080fd5b50565b600081519050610be581610bbf565b92915050565b600060208284031215610c0157610c00610a7c565b5b6000610c0f84828501610bd6565b91505092915050565b610c21816109c6565b82525050565b610c308161096d565b82525050565b610c3f81610a81565b82525050565b610c4e816109a6565b82525050565b61010082016000820151610c6b6000850182610c18565b506020820151610c7e6020850182610c18565b506040820151610c916040850182610c27565b506060820151610ca46060850182610c18565b506080820151610cb76080850182610c36565b5060a0820151610cca60a0850182610c36565b5060c0820151610cdd60c0850182610c36565b5060e0820151610cf060e0850182610c45565b50505050565b600061010082019050610d0c6000830184610c54565b92915050565b600081519050610d2181610a8b565b92915050565b600060208284031215610d3d57610d3c610a7c565b5b6000610d4b84828501610d12565b91505092915050565b61010082016000820151610d6b6000850182610c18565b506020820151610d7e6020850182610c18565b506040820151610d916040850182610c27565b506060820151610da46060850182610c18565b506080820151610db76080850182610c36565b5060a0820151610dca60a0850182610c36565b5060c0820151610ddd60c0850182610c36565b5060e0820151610df060e0850182610c45565b50505050565b600061010082019050610e0c6000830184610d54565b92915050565b7f4e487b7100000000000000000000000000000000000000000000000000000000600052601160045260246000fd5b6000610e4c82610a81565b9150610e5783610a81565b9250828203905081811115610e6f57610e6e610e12565b5b92915050565b600081519050919050565b600081905092915050565b60005b83811015610ea9578082015181840152602081019050610e8e565b60008484015250505050565b6000610ec082610e75565b610eca8185610e80565b9350610eda818560208601610e8b565b80840191505092915050565b6000610ef28284610eb5565b915081905092915050565b600082825260208201905092915050565b7f5341000000000000000000000000000000000000000000000000000000000000600082015250565b6000610f44600283610efd565b9150610f4f82610f0e565b602082019050919050565b60006020820190508181036000830152610f7381610f37565b9050919050565b7f5354000000000000000000000000000000000000000000000000000000000000600082015250565b6000610fb0600283610efd565b9150610fbb82610f7a565b602082019050919050565b60006020820190508181036000830152610fdf81610fa3565b905091905056fea2646970667358221220b4a8b6e9f46976215010fae359e310b0153b989109d98bfa8b1950d8f30329f764736f6c63430008120033",
  "immutableReferences": {
    "4453": [
      {
        "length": 32,
        "start": 507
      },
      {
        "length": 32,
        "start": 837
      },
      {
        "length": 32,
        "start": 1025
      },
      {
        "length": 32,
        "start": 1124
      },
      {
        "length": 32,
        "start": 1453
      },
      {
        "length": 32,
        "start": 1643
      }
    ]
  },
  "source": "// SPDX-License-Identifier: GPL-2.0-or-later\npragma solidity ^0.8.0;\npragma abicoder v2;\n\nimport \"@uniswap/v3-periphery/contracts/libraries/TransferHelper.sol\";\nimport \"@uniswap/v3-periphery/contracts/interfaces/ISwapRouter.sol\";\n\ncontract BiCropSwap {\n    ISwapRouter public immutable swapRouter;\n\n    address public constant LINK = 0x326C977E6efc84E512bB9C30f76E30c160eD06FB;\n    address public constant BIC = 0xf9c4fE8e4d570a712aE40d8836fB64192fF32B5A;\n\n    IERC20 public linkToken = IERC20(LINK);\n    uint24 public constant poolFee = 3000;\n\n    constructor(ISwapRouter _swapRouter) {\n        swapRouter = _swapRouter;\n    }\n\n    function swapExactInputSingle(uint256 amountIn) external returns (uint256 amountOut) {\n        linkToken.approve(address(swapRouter), amountIn);\n\n        ISwapRouter.ExactInputSingleParams memory params =\n            ISwapRouter.ExactInputSingleParams({\n                tokenIn: LINK,\n                tokenOut: BIC,\n                fee: poolFee,\n                recipient: msg.sender,\n                deadline: block.timestamp,\n                amountIn: amountIn,\n                amountOutMinimum: 0,\n                sqrtPriceLimitX96: 0\n            });\n        amountOut = swapRouter.exactInputSingle(params);\n    }\n\n    function swapExactOutputSingle(uint256 amountOut, uint256 amountInMaximum) external returns (uint256 amountIn) {\n        linkToken.approve(address(swapRouter), amountInMaximum);\n        ISwapRouter.ExactOutputSingleParams memory params =\n            ISwapRouter.ExactOutputSingleParams({\n                tokenIn: LINK,\n                tokenOut: BIC,\n                fee: poolFee,\n                recipient: msg.sender,\n                deadline: block.timestamp,\n                amountOut: amountOut,\n                amountInMaximum: amountInMaximum,\n                sqrtPriceLimitX96: 0\n            });\n            \n        amountIn = swapRouter.exactOutputSingle(params);\n        if (amountIn < amountInMaximum) {\n            TransferHelper.safeApprove(LINK, address(swapRouter), 0);\n            TransferHelper.safeTransfer(LINK, msg.sender, amountInMaximum - amountIn);\n        }\n    }\n}",
  "sourcePath": "/Users/iamborigarla/Documents/apps/BiCrop/contracts/cropswap.sol",
  "compiler": {
    "name": "solc",
    "version": "0.8.18+commit.87f61d96.Emscripten.clang"
  },
  "schemaVersion": "3.4.11",
  "updatedAt": "2023-02-15T15:41:18.393Z",
  "devdoc": {
    "kind": "dev",
    "methods": {},
    "version": 1
  },
  "userdoc": {
    "kind": "user",
    "methods": {},
    "version": 1
  }
}