{
  "contractName": "FractionalizedNFT",
  "abi": [
    {
      "inputs": [],
      "stateMutability": "nonpayable",
      "type": "constructor"
    },
    {
      "anonymous": false,
      "inputs": [
        {
          "indexed": true,
          "internalType": "address",
          "name": "owner",
          "type": "address"
        },
        {
          "indexed": true,
          "internalType": "address",
          "name": "spender",
          "type": "address"
        },
        {
          "indexed": false,
          "internalType": "uint256",
          "name": "value",
          "type": "uint256"
        }
      ],
      "name": "Approval",
      "type": "event"
    },
    {
      "anonymous": false,
      "inputs": [
        {
          "indexed": true,
          "internalType": "address",
          "name": "previousOwner",
          "type": "address"
        },
        {
          "indexed": true,
          "internalType": "address",
          "name": "newOwner",
          "type": "address"
        }
      ],
      "name": "OwnershipTransferred",
      "type": "event"
    },
    {
      "anonymous": false,
      "inputs": [
        {
          "indexed": true,
          "internalType": "address",
          "name": "from",
          "type": "address"
        },
        {
          "indexed": true,
          "internalType": "address",
          "name": "to",
          "type": "address"
        },
        {
          "indexed": false,
          "internalType": "uint256",
          "name": "value",
          "type": "uint256"
        }
      ],
      "name": "Transfer",
      "type": "event"
    },
    {
      "inputs": [],
      "name": "DOMAIN_SEPARATOR",
      "outputs": [
        {
          "internalType": "bytes32",
          "name": "",
          "type": "bytes32"
        }
      ],
      "stateMutability": "view",
      "type": "function"
    },
    {
      "inputs": [
        {
          "internalType": "address",
          "name": "owner",
          "type": "address"
        },
        {
          "internalType": "address",
          "name": "spender",
          "type": "address"
        }
      ],
      "name": "allowance",
      "outputs": [
        {
          "internalType": "uint256",
          "name": "",
          "type": "uint256"
        }
      ],
      "stateMutability": "view",
      "type": "function"
    },
    {
      "inputs": [
        {
          "internalType": "address",
          "name": "spender",
          "type": "address"
        },
        {
          "internalType": "uint256",
          "name": "amount",
          "type": "uint256"
        }
      ],
      "name": "approve",
      "outputs": [
        {
          "internalType": "bool",
          "name": "",
          "type": "bool"
        }
      ],
      "stateMutability": "nonpayable",
      "type": "function"
    },
    {
      "inputs": [
        {
          "internalType": "address",
          "name": "account",
          "type": "address"
        }
      ],
      "name": "balanceOf",
      "outputs": [
        {
          "internalType": "uint256",
          "name": "",
          "type": "uint256"
        }
      ],
      "stateMutability": "view",
      "type": "function"
    },
    {
      "inputs": [],
      "name": "canRedeem",
      "outputs": [
        {
          "internalType": "bool",
          "name": "",
          "type": "bool"
        }
      ],
      "stateMutability": "view",
      "type": "function"
    },
    {
      "inputs": [],
      "name": "collection",
      "outputs": [
        {
          "internalType": "contract IERC721",
          "name": "",
          "type": "address"
        }
      ],
      "stateMutability": "view",
      "type": "function"
    },
    {
      "inputs": [],
      "name": "decimals",
      "outputs": [
        {
          "internalType": "uint8",
          "name": "",
          "type": "uint8"
        }
      ],
      "stateMutability": "view",
      "type": "function"
    },
    {
      "inputs": [
        {
          "internalType": "address",
          "name": "spender",
          "type": "address"
        },
        {
          "internalType": "uint256",
          "name": "subtractedValue",
          "type": "uint256"
        }
      ],
      "name": "decreaseAllowance",
      "outputs": [
        {
          "internalType": "bool",
          "name": "",
          "type": "bool"
        }
      ],
      "stateMutability": "nonpayable",
      "type": "function"
    },
    {
      "inputs": [],
      "name": "forSale",
      "outputs": [
        {
          "internalType": "bool",
          "name": "",
          "type": "bool"
        }
      ],
      "stateMutability": "view",
      "type": "function"
    },
    {
      "inputs": [
        {
          "internalType": "address",
          "name": "spender",
          "type": "address"
        },
        {
          "internalType": "uint256",
          "name": "addedValue",
          "type": "uint256"
        }
      ],
      "name": "increaseAllowance",
      "outputs": [
        {
          "internalType": "bool",
          "name": "",
          "type": "bool"
        }
      ],
      "stateMutability": "nonpayable",
      "type": "function"
    },
    {
      "inputs": [],
      "name": "initialized",
      "outputs": [
        {
          "internalType": "bool",
          "name": "",
          "type": "bool"
        }
      ],
      "stateMutability": "view",
      "type": "function"
    },
    {
      "inputs": [],
      "name": "name",
      "outputs": [
        {
          "internalType": "string",
          "name": "",
          "type": "string"
        }
      ],
      "stateMutability": "view",
      "type": "function"
    },
    {
      "inputs": [
        {
          "internalType": "address",
          "name": "owner",
          "type": "address"
        }
      ],
      "name": "nonces",
      "outputs": [
        {
          "internalType": "uint256",
          "name": "",
          "type": "uint256"
        }
      ],
      "stateMutability": "view",
      "type": "function"
    },
    {
      "inputs": [
        {
          "internalType": "address",
          "name": "",
          "type": "address"
        },
        {
          "internalType": "address",
          "name": "",
          "type": "address"
        },
        {
          "internalType": "uint256",
          "name": "",
          "type": "uint256"
        },
        {
          "internalType": "bytes",
          "name": "",
          "type": "bytes"
        }
      ],
      "name": "onERC721Received",
      "outputs": [
        {
          "internalType": "bytes4",
          "name": "",
          "type": "bytes4"
        }
      ],
      "stateMutability": "nonpayable",
      "type": "function"
    },
    {
      "inputs": [],
      "name": "owner",
      "outputs": [
        {
          "internalType": "address",
          "name": "",
          "type": "address"
        }
      ],
      "stateMutability": "view",
      "type": "function"
    },
    {
      "inputs": [
        {
          "internalType": "address",
          "name": "owner",
          "type": "address"
        },
        {
          "internalType": "address",
          "name": "spender",
          "type": "address"
        },
        {
          "internalType": "uint256",
          "name": "value",
          "type": "uint256"
        },
        {
          "internalType": "uint256",
          "name": "deadline",
          "type": "uint256"
        },
        {
          "internalType": "uint8",
          "name": "v",
          "type": "uint8"
        },
        {
          "internalType": "bytes32",
          "name": "r",
          "type": "bytes32"
        },
        {
          "internalType": "bytes32",
          "name": "s",
          "type": "bytes32"
        }
      ],
      "name": "permit",
      "outputs": [],
      "stateMutability": "nonpayable",
      "type": "function"
    },
    {
      "inputs": [],
      "name": "renounceOwnership",
      "outputs": [],
      "stateMutability": "nonpayable",
      "type": "function"
    },
    {
      "inputs": [],
      "name": "salePrice",
      "outputs": [
        {
          "internalType": "uint256",
          "name": "",
          "type": "uint256"
        }
      ],
      "stateMutability": "view",
      "type": "function"
    },
    {
      "inputs": [],
      "name": "symbol",
      "outputs": [
        {
          "internalType": "string",
          "name": "",
          "type": "string"
        }
      ],
      "stateMutability": "view",
      "type": "function"
    },
    {
      "inputs": [],
      "name": "tokenId",
      "outputs": [
        {
          "internalType": "uint256",
          "name": "",
          "type": "uint256"
        }
      ],
      "stateMutability": "view",
      "type": "function"
    },
    {
      "inputs": [],
      "name": "totalSupply",
      "outputs": [
        {
          "internalType": "uint256",
          "name": "",
          "type": "uint256"
        }
      ],
      "stateMutability": "view",
      "type": "function"
    },
    {
      "inputs": [
        {
          "internalType": "address",
          "name": "to",
          "type": "address"
        },
        {
          "internalType": "uint256",
          "name": "amount",
          "type": "uint256"
        }
      ],
      "name": "transfer",
      "outputs": [
        {
          "internalType": "bool",
          "name": "",
          "type": "bool"
        }
      ],
      "stateMutability": "nonpayable",
      "type": "function"
    },
    {
      "inputs": [
        {
          "internalType": "address",
          "name": "from",
          "type": "address"
        },
        {
          "internalType": "address",
          "name": "to",
          "type": "address"
        },
        {
          "internalType": "uint256",
          "name": "amount",
          "type": "uint256"
        }
      ],
      "name": "transferFrom",
      "outputs": [
        {
          "internalType": "bool",
          "name": "",
          "type": "bool"
        }
      ],
      "stateMutability": "nonpayable",
      "type": "function"
    },
    {
      "inputs": [
        {
          "internalType": "address",
          "name": "newOwner",
          "type": "address"
        }
      ],
      "name": "transferOwnership",
      "outputs": [],
      "stateMutability": "nonpayable",
      "type": "function"
    },
    {
      "inputs": [
        {
          "internalType": "address",
          "name": "_collection",
          "type": "address"
        },
        {
          "internalType": "uint256",
          "name": "_tokenId",
          "type": "uint256"
        },
        {
          "internalType": "uint256",
          "name": "_amount",
          "type": "uint256"
        }
      ],
      "name": "initialize",
      "outputs": [],
      "stateMutability": "nonpayable",
      "type": "function"
    },
    {
      "inputs": [
        {
          "internalType": "uint256",
          "name": "price",
          "type": "uint256"
        }
      ],
      "name": "putForSale",
      "outputs": [],
      "stateMutability": "nonpayable",
      "type": "function"
    },
    {
      "inputs": [],
      "name": "purchase",
      "outputs": [],
      "stateMutability": "payable",
      "type": "function"
    },
    {
      "inputs": [
        {
          "internalType": "uint256",
          "name": "_amount",
          "type": "uint256"
        }
      ],
      "name": "redeem",
      "outputs": [],
      "stateMutability": "nonpayable",
      "type": "function"
    }
  ],
  "bytecode": "0x6101406040526000600a60006101000a81548160ff0219169083151502179055506000600a60016101000a81548160ff0219169083151502179055506000600c60006101000a81548160ff0219169083151502179055503480156200006357600080fd5b506040518060400160405280600781526020017f4d79546f6b656e00000000000000000000000000000000000000000000000000815250806040518060400160405280600181526020017f31000000000000000000000000000000000000000000000000000000000000008152506040518060400160405280600781526020017f4d79546f6b656e000000000000000000000000000000000000000000000000008152506040518060400160405280600381526020017f4d544b000000000000000000000000000000000000000000000000000000000081525081600390816200014e9190620005c0565b508060049081620001609190620005c0565b50505062000183620001776200023c60201b60201c565b6200024460201b60201c565b60008280519060200120905060008280519060200120905060007f8b73c3c69bb8fe3d512ecc4cf759cc79239f7b179b0ffacaa9a75d522b39400f90508260e081815250508161010081815250504660a08181525050620001ec8184846200030a60201b60201c565b608081815250503073ffffffffffffffffffffffffffffffffffffffff1660c08173ffffffffffffffffffffffffffffffffffffffff168152505080610120818152505050505050505062000775565b600033905090565b6000600560009054906101000a900473ffffffffffffffffffffffffffffffffffffffff16905081600560006101000a81548173ffffffffffffffffffffffffffffffffffffffff021916908373ffffffffffffffffffffffffffffffffffffffff1602179055508173ffffffffffffffffffffffffffffffffffffffff168173ffffffffffffffffffffffffffffffffffffffff167f8be0079c531659141344cd1fd0a4f28419497f9722a3daafe3b4186f6b6457e060405160405180910390a35050565b600083838346306040516020016200032795949392919062000718565b6040516020818303038152906040528051906020012090509392505050565b600081519050919050565b7f4e487b7100000000000000000000000000000000000000000000000000000000600052604160045260246000fd5b7f4e487b7100000000000000000000000000000000000000000000000000000000600052602260045260246000fd5b60006002820490506001821680620003c857607f821691505b602082108103620003de57620003dd62000380565b5b50919050565b60008190508160005260206000209050919050565b60006020601f8301049050919050565b600082821b905092915050565b600060088302620004487fffffffffffffffffffffffffffffffffffffffffffffffffffffffffffffffff8262000409565b62000454868362000409565b95508019841693508086168417925050509392505050565b6000819050919050565b6000819050919050565b6000620004a16200049b62000495846200046c565b62000476565b6200046c565b9050919050565b6000819050919050565b620004bd8362000480565b620004d5620004cc82620004a8565b84845462000416565b825550505050565b600090565b620004ec620004dd565b620004f9818484620004b2565b505050565b5b81811015620005215762000515600082620004e2565b600181019050620004ff565b5050565b601f82111562000570576200053a81620003e4565b6200054584620003f9565b8101602085101562000555578190505b6200056d6200056485620003f9565b830182620004fe565b50505b505050565b600082821c905092915050565b6000620005956000198460080262000575565b1980831691505092915050565b6000620005b0838362000582565b9150826002028217905092915050565b620005cb8262000346565b67ffffffffffffffff811115620005e757620005e662000351565b5b620005f38254620003af565b6200060082828562000525565b600060209050601f83116001811462000638576000841562000623578287015190505b6200062f8582620005a2565b8655506200069f565b601f1984166200064886620003e4565b60005b8281101562000672578489015182556001820191506020850194506020810190506200064b565b868310156200069257848901516200068e601f89168262000582565b8355505b6001600288020188555050505b505050505050565b6000819050919050565b620006bc81620006a7565b82525050565b620006cd816200046c565b82525050565b600073ffffffffffffffffffffffffffffffffffffffff82169050919050565b60006200070082620006d3565b9050919050565b6200071281620006f3565b82525050565b600060a0820190506200072f6000830188620006b1565b6200073e6020830187620006b1565b6200074d6040830186620006b1565b6200075c6060830185620006c2565b6200076b608083018462000707565b9695505050505050565b60805160a05160c05160e051610100516101205161346b620007c560003960006116d201526000611714015260006116f3015260006116280152600061167e015260006116a7015261346b6000f3fe6080604052600436106101b75760003560e01c8063715018a6116100ec578063a9059cbb1161008a578063dd62ed3e11610064578063dd62ed3e14610617578063f2fde38b14610654578063f51f96dd1461067d578063f97ed509146106a8576101b7565b8063a9059cbb14610588578063d505accf146105c5578063db006a75146105ee576101b7565b80637ecebe00116100c65780637ecebe00146104b85780638da5cb5b146104f557806395d89b4114610520578063a457c2d71461054b576101b7565b8063715018a61461044d5780637a1ac61e146104645780637de1e5361461048d576101b7565b806323b872dd116101595780633950935111610133578063395093511461039e578063466ccac0146103db57806364edfbf01461040657806370a0823114610410576101b7565b806323b872dd1461030b578063313ce567146103485780633644e51514610373576101b7565b8063158ef93e11610195578063158ef93e1461026157806317d70f7c1461028c57806318160ddd146102b75780631f078ced146102e2576101b7565b806306fdde03146101bc578063095ea7b3146101e7578063150b7a0214610224575b600080fd5b3480156101c857600080fd5b506101d16106d3565b6040516101de9190611f3d565b60405180910390f35b3480156101f357600080fd5b5061020e60048036038101906102099190612007565b610765565b60405161021b9190612062565b60405180910390f35b34801561023057600080fd5b5061024b600480360381019061024691906121b2565b610788565b6040516102589190612270565b60405180910390f35b34801561026d57600080fd5b5061027661079c565b6040516102839190612062565b60405180910390f35b34801561029857600080fd5b506102a16107af565b6040516102ae919061229a565b60405180910390f35b3480156102c357600080fd5b506102cc6107b5565b6040516102d9919061229a565b60405180910390f35b3480156102ee57600080fd5b50610309600480360381019061030491906122b5565b6107bf565b005b34801561031757600080fd5b50610332600480360381019061032d91906122e2565b6107ec565b60405161033f9190612062565b60405180910390f35b34801561035457600080fd5b5061035d61081b565b60405161036a9190612351565b60405180910390f35b34801561037f57600080fd5b50610388610824565b6040516103959190612385565b60405180910390f35b3480156103aa57600080fd5b506103c560048036038101906103c09190612007565b610833565b6040516103d29190612062565b60405180910390f35b3480156103e757600080fd5b506103f061086a565b6040516103fd9190612062565b60405180910390f35b61040e61087d565b005b34801561041c57600080fd5b50610437600480360381019061043291906123a0565b6109dc565b604051610444919061229a565b60405180910390f35b34801561045957600080fd5b50610462610a24565b005b34801561047057600080fd5b5061048b600480360381019061048691906123cd565b610a38565b005b34801561049957600080fd5b506104a2610bd6565b6040516104af919061247f565b60405180910390f35b3480156104c457600080fd5b506104df60048036038101906104da91906123a0565b610bfc565b6040516104ec919061229a565b60405180910390f35b34801561050157600080fd5b5061050a610c4c565b60405161051791906124a9565b60405180910390f35b34801561052c57600080fd5b50610535610c76565b6040516105429190611f3d565b60405180910390f35b34801561055757600080fd5b50610572600480360381019061056d9190612007565b610d08565b60405161057f9190612062565b60405180910390f35b34801561059457600080fd5b506105af60048036038101906105aa9190612007565b610d7f565b6040516105bc9190612062565b60405180910390f35b3480156105d157600080fd5b506105ec60048036038101906105e7919061251c565b610da2565b005b3480156105fa57600080fd5b50610615600480360381019061061091906122b5565b610ee4565b005b34801561062357600080fd5b5061063e600480360381019061063991906125be565b610fb0565b60405161064b919061229a565b60405180910390f35b34801561066057600080fd5b5061067b600480360381019061067691906123a0565b611037565b005b34801561068957600080fd5b506106926110ba565b60405161069f919061229a565b60405180910390f35b3480156106b457600080fd5b506106bd6110c0565b6040516106ca9190612062565b60405180910390f35b6060600380546106e29061262d565b80601f016020809104026020016040519081016040528092919081815260200182805461070e9061262d565b801561075b5780601f106107305761010080835404028352916020019161075b565b820191906000526020600020905b81548152906001019060200180831161073e57829003601f168201915b5050505050905090565b6000806107706110d3565b905061077d8185856110db565b600191505092915050565b600063150b7a0260e01b9050949350505050565b600a60009054906101000a900460ff1681565b60095481565b6000600254905090565b6107c76112a4565b80600b819055506001600a60016101000a81548160ff02191690831515021790555050565b6000806107f76110d3565b9050610804858285611322565b61080f8585856113ae565b60019150509392505050565b60006012905090565b600061082e611624565b905090565b60008061083e6110d3565b905061085f8185856108508589610fb0565b61085a919061268d565b6110db565b600191505092915050565b600a60019054906101000a900460ff1681565b600a60019054906101000a900460ff166108cc576040517f08c379a00000000000000000000000000000000000000000000000000000000081526004016108c39061270d565b60405180910390fd5b600b54341015610911576040517f08c379a000000000000000000000000000000000000000000000000000000000815260040161090890612779565b60405180910390fd5b600860009054906101000a900473ffffffffffffffffffffffffffffffffffffffff1673ffffffffffffffffffffffffffffffffffffffff166323b872dd30336009546040518463ffffffff1660e01b815260040161097293929190612799565b600060405180830381600087803b15801561098c57600080fd5b505af11580156109a0573d6000803e3d6000fd5b505050506000600a60016101000a81548160ff0219169083151502179055506001600c60006101000a81548160ff021916908315150217905550565b60008060008373ffffffffffffffffffffffffffffffffffffffff1673ffffffffffffffffffffffffffffffffffffffff168152602001908152602001600020549050919050565b610a2c6112a4565b610a36600061173e565b565b610a406112a4565b600a60009054906101000a900460ff1615610a90576040517f08c379a0000000000000000000000000000000000000000000000000000000008152600401610a879061281c565b60405180910390fd5b60008111610ad3576040517f08c379a0000000000000000000000000000000000000000000000000000000008152600401610aca90612888565b60405180910390fd5b82600860006101000a81548173ffffffffffffffffffffffffffffffffffffffff021916908373ffffffffffffffffffffffffffffffffffffffff160217905550600860009054906101000a900473ffffffffffffffffffffffffffffffffffffffff1673ffffffffffffffffffffffffffffffffffffffff166342842e0e3330856040518463ffffffff1660e01b8152600401610b7393929190612799565b600060405180830381600087803b158015610b8d57600080fd5b505af1158015610ba1573d6000803e3d6000fd5b50505050816009819055506001600a60006101000a81548160ff021916908315150217905550610bd13082611804565b505050565b600860009054906101000a900473ffffffffffffffffffffffffffffffffffffffff1681565b6000610c45600660008473ffffffffffffffffffffffffffffffffffffffff1673ffffffffffffffffffffffffffffffffffffffff16815260200190815260200160002061195a565b9050919050565b6000600560009054906101000a900473ffffffffffffffffffffffffffffffffffffffff16905090565b606060048054610c859061262d565b80601f0160208091040260200160405190810160405280929190818152602001828054610cb19061262d565b8015610cfe5780601f10610cd357610100808354040283529160200191610cfe565b820191906000526020600020905b815481529060010190602001808311610ce157829003601f168201915b5050505050905090565b600080610d136110d3565b90506000610d218286610fb0565b905083811015610d66576040517f08c379a0000000000000000000000000000000000000000000000000000000008152600401610d5d9061291a565b60405180910390fd5b610d7382868684036110db565b60019250505092915050565b600080610d8a6110d3565b9050610d978185856113ae565b600191505092915050565b83421115610de5576040517f08c379a0000000000000000000000000000000000000000000000000000000008152600401610ddc90612986565b60405180910390fd5b60007f6e71edae12b1b97f4d1f60370fef10105fa2faae0126114a169c64845d6126c9888888610e148c611968565b89604051602001610e2a969594939291906129a6565b6040516020818303038152906040528051906020012090506000610e4d826119c6565b90506000610e5d828787876119e0565b90508973ffffffffffffffffffffffffffffffffffffffff168173ffffffffffffffffffffffffffffffffffffffff1614610ecd576040517f08c379a0000000000000000000000000000000000000000000000000000000008152600401610ec490612a53565b60405180910390fd5b610ed88a8a8a6110db565b50505050505050505050565b600c60009054906101000a900460ff16610f33576040517f08c379a0000000000000000000000000000000000000000000000000000000008152600401610f2a90612abf565b60405180910390fd5b60004790506000610f426107b5565b8284610f4e9190612adf565b610f589190612b50565b9050610f643384611a0b565b3373ffffffffffffffffffffffffffffffffffffffff166108fc829081150290604051600060405180830381858888f19350505050158015610faa573d6000803e3d6000fd5b50505050565b6000600160008473ffffffffffffffffffffffffffffffffffffffff1673ffffffffffffffffffffffffffffffffffffffff16815260200190815260200160002060008373ffffffffffffffffffffffffffffffffffffffff1673ffffffffffffffffffffffffffffffffffffffff16815260200190815260200160002054905092915050565b61103f6112a4565b600073ffffffffffffffffffffffffffffffffffffffff168173ffffffffffffffffffffffffffffffffffffffff16036110ae576040517f08c379a00000000000000000000000000000000000000000000000000000000081526004016110a590612bf3565b60405180910390fd5b6110b78161173e565b50565b600b5481565b600c60009054906101000a900460ff1681565b600033905090565b600073ffffffffffffffffffffffffffffffffffffffff168373ffffffffffffffffffffffffffffffffffffffff160361114a576040517f08c379a000000000000000000000000000000000000000000000000000000000815260040161114190612c85565b60405180910390fd5b600073ffffffffffffffffffffffffffffffffffffffff168273ffffffffffffffffffffffffffffffffffffffff16036111b9576040517f08c379a00000000000000000000000000000000000000000000000000000000081526004016111b090612d17565b60405180910390fd5b80600160008573ffffffffffffffffffffffffffffffffffffffff1673ffffffffffffffffffffffffffffffffffffffff16815260200190815260200160002060008473ffffffffffffffffffffffffffffffffffffffff1673ffffffffffffffffffffffffffffffffffffffff168152602001908152602001600020819055508173ffffffffffffffffffffffffffffffffffffffff168373ffffffffffffffffffffffffffffffffffffffff167f8c5be1e5ebec7d5bd14f71427d1e84f3dd0314c0f7b2291e5b200ac8c7c3b92583604051611297919061229a565b60405180910390a3505050565b6112ac6110d3565b73ffffffffffffffffffffffffffffffffffffffff166112ca610c4c565b73ffffffffffffffffffffffffffffffffffffffff1614611320576040517f08c379a000000000000000000000000000000000000000000000000000000000815260040161131790612d83565b60405180910390fd5b565b600061132e8484610fb0565b90507fffffffffffffffffffffffffffffffffffffffffffffffffffffffffffffffff81146113a8578181101561139a576040517f08c379a000000000000000000000000000000000000000000000000000000000815260040161139190612def565b60405180910390fd5b6113a784848484036110db565b5b50505050565b600073ffffffffffffffffffffffffffffffffffffffff168373ffffffffffffffffffffffffffffffffffffffff160361141d576040517f08c379a000000000000000000000000000000000000000000000000000000000815260040161141490612e81565b60405180910390fd5b600073ffffffffffffffffffffffffffffffffffffffff168273ffffffffffffffffffffffffffffffffffffffff160361148c576040517f08c379a000000000000000000000000000000000000000000000000000000000815260040161148390612f13565b60405180910390fd5b611497838383611bd8565b60008060008573ffffffffffffffffffffffffffffffffffffffff1673ffffffffffffffffffffffffffffffffffffffff1681526020019081526020016000205490508181101561151d576040517f08c379a000000000000000000000000000000000000000000000000000000000815260040161151490612fa5565b60405180910390fd5b8181036000808673ffffffffffffffffffffffffffffffffffffffff1673ffffffffffffffffffffffffffffffffffffffff16815260200190815260200160002081905550816000808573ffffffffffffffffffffffffffffffffffffffff1673ffffffffffffffffffffffffffffffffffffffff168152602001908152602001600020600082825401925050819055508273ffffffffffffffffffffffffffffffffffffffff168473ffffffffffffffffffffffffffffffffffffffff167fddf252ad1be2c89b69c2b068fc378daa952ba7f163c4a11628f55a4df523b3ef8460405161160b919061229a565b60405180910390a361161e848484611bdd565b50505050565b60007f000000000000000000000000000000000000000000000000000000000000000073ffffffffffffffffffffffffffffffffffffffff163073ffffffffffffffffffffffffffffffffffffffff161480156116a057507f000000000000000000000000000000000000000000000000000000000000000046145b156116cd577f0000000000000000000000000000000000000000000000000000000000000000905061173b565b6117387f00000000000000000000000000000000000000000000000000000000000000007f00000000000000000000000000000000000000000000000000000000000000007f0000000000000000000000000000000000000000000000000000000000000000611be2565b90505b90565b6000600560009054906101000a900473ffffffffffffffffffffffffffffffffffffffff16905081600560006101000a81548173ffffffffffffffffffffffffffffffffffffffff021916908373ffffffffffffffffffffffffffffffffffffffff1602179055508173ffffffffffffffffffffffffffffffffffffffff168173ffffffffffffffffffffffffffffffffffffffff167f8be0079c531659141344cd1fd0a4f28419497f9722a3daafe3b4186f6b6457e060405160405180910390a35050565b600073ffffffffffffffffffffffffffffffffffffffff168273ffffffffffffffffffffffffffffffffffffffff1603611873576040517f08c379a000000000000000000000000000000000000000000000000000000000815260040161186a90613011565b60405180910390fd5b61187f60008383611bd8565b8060026000828254611891919061268d565b92505081905550806000808473ffffffffffffffffffffffffffffffffffffffff1673ffffffffffffffffffffffffffffffffffffffff168152602001908152602001600020600082825401925050819055508173ffffffffffffffffffffffffffffffffffffffff16600073ffffffffffffffffffffffffffffffffffffffff167fddf252ad1be2c89b69c2b068fc378daa952ba7f163c4a11628f55a4df523b3ef83604051611942919061229a565b60405180910390a361195660008383611bdd565b5050565b600081600001549050919050565b600080600660008473ffffffffffffffffffffffffffffffffffffffff1673ffffffffffffffffffffffffffffffffffffffff16815260200190815260200160002090506119b58161195a565b91506119c081611c1c565b50919050565b60006119d96119d3611624565b83611c32565b9050919050565b60008060006119f187878787611c65565b915091506119fe81611d47565b8192505050949350505050565b600073ffffffffffffffffffffffffffffffffffffffff168273ffffffffffffffffffffffffffffffffffffffff1603611a7a576040517f08c379a0000000000000000000000000000000000000000000000000000000008152600401611a71906130a3565b60405180910390fd5b611a8682600083611bd8565b60008060008473ffffffffffffffffffffffffffffffffffffffff1673ffffffffffffffffffffffffffffffffffffffff16815260200190815260200160002054905081811015611b0c576040517f08c379a0000000000000000000000000000000000000000000000000000000008152600401611b0390613135565b60405180910390fd5b8181036000808573ffffffffffffffffffffffffffffffffffffffff1673ffffffffffffffffffffffffffffffffffffffff1681526020019081526020016000208190555081600260008282540392505081905550600073ffffffffffffffffffffffffffffffffffffffff168373ffffffffffffffffffffffffffffffffffffffff167fddf252ad1be2c89b69c2b068fc378daa952ba7f163c4a11628f55a4df523b3ef84604051611bbf919061229a565b60405180910390a3611bd383600084611bdd565b505050565b505050565b505050565b60008383834630604051602001611bfd959493929190613155565b6040516020818303038152906040528051906020012090509392505050565b6001816000016000828254019250508190555050565b60008282604051602001611c47929190613220565b60405160208183030381529060405280519060200120905092915050565b6000807f7fffffffffffffffffffffffffffffff5d576e7357a4501ddfe92f46681b20a08360001c1115611ca0576000600391509150611d3e565b600060018787878760405160008152602001604052604051611cc59493929190613257565b6020604051602081039080840390855afa158015611ce7573d6000803e3d6000fd5b505050602060405103519050600073ffffffffffffffffffffffffffffffffffffffff168173ffffffffffffffffffffffffffffffffffffffff1603611d3557600060019250925050611d3e565b80600092509250505b94509492505050565b60006004811115611d5b57611d5a61329c565b5b816004811115611d6e57611d6d61329c565b5b0315611eaa5760016004811115611d8857611d8761329c565b5b816004811115611d9b57611d9a61329c565b5b03611ddb576040517f08c379a0000000000000000000000000000000000000000000000000000000008152600401611dd290613317565b60405180910390fd5b60026004811115611def57611dee61329c565b5b816004811115611e0257611e0161329c565b5b03611e42576040517f08c379a0000000000000000000000000000000000000000000000000000000008152600401611e3990613383565b60405180910390fd5b60036004811115611e5657611e5561329c565b5b816004811115611e6957611e6861329c565b5b03611ea9576040517f08c379a0000000000000000000000000000000000000000000000000000000008152600401611ea090613415565b60405180910390fd5b5b50565b600081519050919050565b600082825260208201905092915050565b60005b83811015611ee7578082015181840152602081019050611ecc565b60008484015250505050565b6000601f19601f8301169050919050565b6000611f0f82611ead565b611f198185611eb8565b9350611f29818560208601611ec9565b611f3281611ef3565b840191505092915050565b60006020820190508181036000830152611f578184611f04565b905092915050565b6000604051905090565b600080fd5b600080fd5b600073ffffffffffffffffffffffffffffffffffffffff82169050919050565b6000611f9e82611f73565b9050919050565b611fae81611f93565b8114611fb957600080fd5b50565b600081359050611fcb81611fa5565b92915050565b6000819050919050565b611fe481611fd1565b8114611fef57600080fd5b50565b60008135905061200181611fdb565b92915050565b6000806040838503121561201e5761201d611f69565b5b600061202c85828601611fbc565b925050602061203d85828601611ff2565b9150509250929050565b60008115159050919050565b61205c81612047565b82525050565b60006020820190506120776000830184612053565b92915050565b600080fd5b600080fd5b7f4e487b7100000000000000000000000000000000000000000000000000000000600052604160045260246000fd5b6120bf82611ef3565b810181811067ffffffffffffffff821117156120de576120dd612087565b5b80604052505050565b60006120f1611f5f565b90506120fd82826120b6565b919050565b600067ffffffffffffffff82111561211d5761211c612087565b5b61212682611ef3565b9050602081019050919050565b82818337600083830152505050565b600061215561215084612102565b6120e7565b90508281526020810184848401111561217157612170612082565b5b61217c848285612133565b509392505050565b600082601f8301126121995761219861207d565b5b81356121a9848260208601612142565b91505092915050565b600080600080608085870312156121cc576121cb611f69565b5b60006121da87828801611fbc565b94505060206121eb87828801611fbc565b93505060406121fc87828801611ff2565b925050606085013567ffffffffffffffff81111561221d5761221c611f6e565b5b61222987828801612184565b91505092959194509250565b60007fffffffff0000000000000000000000000000000000000000000000000000000082169050919050565b61226a81612235565b82525050565b60006020820190506122856000830184612261565b92915050565b61229481611fd1565b82525050565b60006020820190506122af600083018461228b565b92915050565b6000602082840312156122cb576122ca611f69565b5b60006122d984828501611ff2565b91505092915050565b6000806000606084860312156122fb576122fa611f69565b5b600061230986828701611fbc565b935050602061231a86828701611fbc565b925050604061232b86828701611ff2565b9150509250925092565b600060ff82169050919050565b61234b81612335565b82525050565b60006020820190506123666000830184612342565b92915050565b6000819050919050565b61237f8161236c565b82525050565b600060208201905061239a6000830184612376565b92915050565b6000602082840312156123b6576123b5611f69565b5b60006123c484828501611fbc565b91505092915050565b6000806000606084860312156123e6576123e5611f69565b5b60006123f486828701611fbc565b935050602061240586828701611ff2565b925050604061241686828701611ff2565b9150509250925092565b6000819050919050565b600061244561244061243b84611f73565b612420565b611f73565b9050919050565b60006124578261242a565b9050919050565b60006124698261244c565b9050919050565b6124798161245e565b82525050565b60006020820190506124946000830184612470565b92915050565b6124a381611f93565b82525050565b60006020820190506124be600083018461249a565b92915050565b6124cd81612335565b81146124d857600080fd5b50565b6000813590506124ea816124c4565b92915050565b6124f98161236c565b811461250457600080fd5b50565b600081359050612516816124f0565b92915050565b600080600080600080600060e0888a03121561253b5761253a611f69565b5b60006125498a828b01611fbc565b975050602061255a8a828b01611fbc565b965050604061256b8a828b01611ff2565b955050606061257c8a828b01611ff2565b945050608061258d8a828b016124db565b93505060a061259e8a828b01612507565b92505060c06125af8a828b01612507565b91505092959891949750929550565b600080604083850312156125d5576125d4611f69565b5b60006125e385828601611fbc565b92505060206125f485828601611fbc565b9150509250929050565b7f4e487b7100000000000000000000000000000000000000000000000000000000600052602260045260246000fd5b6000600282049050600182168061264557607f821691505b602082108103612658576126576125fe565b5b50919050565b7f4e487b7100000000000000000000000000000000000000000000000000000000600052601160045260246000fd5b600061269882611fd1565b91506126a383611fd1565b92508282019050808211156126bb576126ba61265e565b5b92915050565b7f4e6f7420666f722073616c650000000000000000000000000000000000000000600082015250565b60006126f7600c83611eb8565b9150612702826126c1565b602082019050919050565b60006020820190508181036000830152612726816126ea565b9050919050565b7f4e6f7420656e6f7567682065746865722073656e740000000000000000000000600082015250565b6000612763601583611eb8565b915061276e8261272d565b602082019050919050565b6000602082019050818103600083015261279281612756565b9050919050565b60006060820190506127ae600083018661249a565b6127bb602083018561249a565b6127c8604083018461228b565b949350505050565b7f416c726561647920696e697469616c697a656400000000000000000000000000600082015250565b6000612806601383611eb8565b9150612811826127d0565b602082019050919050565b60006020820190508181036000830152612835816127f9565b9050919050565b7f416d6f756e74206e6565647320746f206265206d6f7265207468616e20300000600082015250565b6000612872601e83611eb8565b915061287d8261283c565b602082019050919050565b600060208201905081810360008301526128a181612865565b9050919050565b7f45524332303a2064656372656173656420616c6c6f77616e63652062656c6f7760008201527f207a65726f000000000000000000000000000000000000000000000000000000602082015250565b6000612904602583611eb8565b915061290f826128a8565b604082019050919050565b60006020820190508181036000830152612933816128f7565b9050919050565b7f45524332305065726d69743a206578706972656420646561646c696e65000000600082015250565b6000612970601d83611eb8565b915061297b8261293a565b602082019050919050565b6000602082019050818103600083015261299f81612963565b9050919050565b600060c0820190506129bb6000830189612376565b6129c8602083018861249a565b6129d5604083018761249a565b6129e2606083018661228b565b6129ef608083018561228b565b6129fc60a083018461228b565b979650505050505050565b7f45524332305065726d69743a20696e76616c6964207369676e61747572650000600082015250565b6000612a3d601e83611eb8565b9150612a4882612a07565b602082019050919050565b60006020820190508181036000830152612a6c81612a30565b9050919050565b7f526564656d7074696f6e206e6f7420617661696c61626c650000000000000000600082015250565b6000612aa9601883611eb8565b9150612ab482612a73565b602082019050919050565b60006020820190508181036000830152612ad881612a9c565b9050919050565b6000612aea82611fd1565b9150612af583611fd1565b9250828202612b0381611fd1565b91508282048414831517612b1a57612b1961265e565b5b5092915050565b7f4e487b7100000000000000000000000000000000000000000000000000000000600052601260045260246000fd5b6000612b5b82611fd1565b9150612b6683611fd1565b925082612b7657612b75612b21565b5b828204905092915050565b7f4f776e61626c653a206e6577206f776e657220697320746865207a65726f206160008201527f6464726573730000000000000000000000000000000000000000000000000000602082015250565b6000612bdd602683611eb8565b9150612be882612b81565b604082019050919050565b60006020820190508181036000830152612c0c81612bd0565b9050919050565b7f45524332303a20617070726f76652066726f6d20746865207a65726f2061646460008201527f7265737300000000000000000000000000000000000000000000000000000000602082015250565b6000612c6f602483611eb8565b9150612c7a82612c13565b604082019050919050565b60006020820190508181036000830152612c9e81612c62565b9050919050565b7f45524332303a20617070726f766520746f20746865207a65726f20616464726560008201527f7373000000000000000000000000000000000000000000000000000000000000602082015250565b6000612d01602283611eb8565b9150612d0c82612ca5565b604082019050919050565b60006020820190508181036000830152612d3081612cf4565b9050919050565b7f4f776e61626c653a2063616c6c6572206973206e6f7420746865206f776e6572600082015250565b6000612d6d602083611eb8565b9150612d7882612d37565b602082019050919050565b60006020820190508181036000830152612d9c81612d60565b9050919050565b7f45524332303a20696e73756666696369656e7420616c6c6f77616e6365000000600082015250565b6000612dd9601d83611eb8565b9150612de482612da3565b602082019050919050565b60006020820190508181036000830152612e0881612dcc565b9050919050565b7f45524332303a207472616e736665722066726f6d20746865207a65726f20616460008201527f6472657373000000000000000000000000000000000000000000000000000000602082015250565b6000612e6b602583611eb8565b9150612e7682612e0f565b604082019050919050565b60006020820190508181036000830152612e9a81612e5e565b9050919050565b7f45524332303a207472616e7366657220746f20746865207a65726f206164647260008201527f6573730000000000000000000000000000000000000000000000000000000000602082015250565b6000612efd602383611eb8565b9150612f0882612ea1565b604082019050919050565b60006020820190508181036000830152612f2c81612ef0565b9050919050565b7f45524332303a207472616e7366657220616d6f756e742065786365656473206260008201527f616c616e63650000000000000000000000000000000000000000000000000000602082015250565b6000612f8f602683611eb8565b9150612f9a82612f33565b604082019050919050565b60006020820190508181036000830152612fbe81612f82565b9050919050565b7f45524332303a206d696e7420746f20746865207a65726f206164647265737300600082015250565b6000612ffb601f83611eb8565b915061300682612fc5565b602082019050919050565b6000602082019050818103600083015261302a81612fee565b9050919050565b7f45524332303a206275726e2066726f6d20746865207a65726f2061646472657360008201527f7300000000000000000000000000000000000000000000000000000000000000602082015250565b600061308d602183611eb8565b915061309882613031565b604082019050919050565b600060208201905081810360008301526130bc81613080565b9050919050565b7f45524332303a206275726e20616d6f756e7420657863656564732062616c616e60008201527f6365000000000000000000000000000000000000000000000000000000000000602082015250565b600061311f602283611eb8565b915061312a826130c3565b604082019050919050565b6000602082019050818103600083015261314e81613112565b9050919050565b600060a08201905061316a6000830188612376565b6131776020830187612376565b6131846040830186612376565b613191606083018561228b565b61319e608083018461249a565b9695505050505050565b600081905092915050565b7f1901000000000000000000000000000000000000000000000000000000000000600082015250565b60006131e96002836131a8565b91506131f4826131b3565b600282019050919050565b6000819050919050565b61321a6132158261236c565b6131ff565b82525050565b600061322b826131dc565b91506132378285613209565b6020820191506132478284613209565b6020820191508190509392505050565b600060808201905061326c6000830187612376565b6132796020830186612342565b6132866040830185612376565b6132936060830184612376565b95945050505050565b7f4e487b7100000000000000000000000000000000000000000000000000000000600052602160045260246000fd5b7f45434453413a20696e76616c6964207369676e61747572650000000000000000600082015250565b6000613301601883611eb8565b915061330c826132cb565b602082019050919050565b60006020820190508181036000830152613330816132f4565b9050919050565b7f45434453413a20696e76616c6964207369676e6174757265206c656e67746800600082015250565b600061336d601f83611eb8565b915061337882613337565b602082019050919050565b6000602082019050818103600083015261339c81613360565b9050919050565b7f45434453413a20696e76616c6964207369676e6174757265202773272076616c60008201527f7565000000000000000000000000000000000000000000000000000000000000602082015250565b60006133ff602283611eb8565b915061340a826133a3565b604082019050919050565b6000602082019050818103600083015261342e816133f2565b905091905056fea26469706673582212207d55bf8aeca8897a4994a0b227612c510573988517ec90e0e3a911e36c0d1afd64736f6c63430008120033",
  "immutableReferences": {
    "3111": [
      {
        "length": 32,
        "start": 5799
      }
    ],
    "3113": [
      {
        "length": 32,
        "start": 5758
      }
    ],
    "3115": [
      {
        "length": 32,
        "start": 5672
      }
    ],
    "3117": [
      {
        "length": 32,
        "start": 5875
      }
    ],
    "3119": [
      {
        "length": 32,
        "start": 5908
      }
    ],
    "3121": [
      {
        "length": 32,
        "start": 5842
      }
    ]
  },
  "source": "// SPDX-License-Identifier: MIT\npragma solidity ^0.8.4;\n\nimport \"@openzeppelin/contracts/token/ERC20/ERC20.sol\";\nimport \"@openzeppelin/contracts/token/ERC721/IERC721.sol\";\nimport \"@openzeppelin/contracts/access/Ownable.sol\";\nimport \"@openzeppelin/contracts/token/ERC20/extensions/draft-ERC20Permit.sol\";\nimport \"@openzeppelin/contracts/token/ERC721/utils/ERC721Holder.sol\";\n\ncontract FractionalizedNFT is ERC20, Ownable, ERC20Permit, ERC721Holder {\n    IERC721 public collection;\n    uint256 public tokenId;\n    bool public initialized = false;\n    bool public forSale = false;\n    uint256 public salePrice;\n    bool public canRedeem = false;\n\n    constructor() ERC20(\"MyToken\", \"MTK\") ERC20Permit(\"MyToken\") {}\n\n    function initialize(address _collection, uint256 _tokenId, uint256 _amount) external onlyOwner {\n        require(!initialized, \"Already initialized\");\n        require(_amount > 0, \"Amount needs to be more than 0\");\n        collection = IERC721(_collection);\n        collection.safeTransferFrom(msg.sender, address(this), _tokenId);\n        tokenId = _tokenId;\n        initialized = true;\n        _mint(address(this), _amount);\n    }\n\n    function putForSale(uint256 price) external onlyOwner {\n        salePrice = price;\n        forSale = true;\n    }\n\n    function purchase() external payable {\n        require(forSale, \"Not for sale\");\n        require(msg.value >= salePrice, \"Not enough ether sent\");\n        collection.transferFrom(address(this), msg.sender, tokenId);\n        forSale = false;\n        canRedeem = true;\n    }\n\n    function redeem(uint256 _amount) external {\n        require(canRedeem, \"Redemption not available\");\n        uint256 totalEther = address(this).balance;\n        uint256 toRedeem = _amount * totalEther / totalSupply();\n\n        _burn(msg.sender, _amount);\n        payable(msg.sender).transfer(toRedeem);\n    }\n}",
  "sourcePath": "/Users/iamborigarla/Documents/apps/BiCrop/contracts/fNFT.sol",
  "compiler": {
    "name": "solc",
    "version": "0.8.18+commit.87f61d96.Emscripten.clang"
  },
  "schemaVersion": "3.4.11",
  "updatedAt": "2023-02-15T15:41:18.503Z",
  "devdoc": {
    "events": {
      "Approval(address,address,uint256)": {
        "details": "Emitted when the allowance of a `spender` for an `owner` is set by a call to {approve}. `value` is the new allowance."
      },
      "Transfer(address,address,uint256)": {
        "details": "Emitted when `value` tokens are moved from one account (`from`) to another (`to`). Note that `value` may be zero."
      }
    },
    "kind": "dev",
    "methods": {
      "DOMAIN_SEPARATOR()": {
        "details": "See {IERC20Permit-DOMAIN_SEPARATOR}."
      },
      "allowance(address,address)": {
        "details": "See {IERC20-allowance}."
      },
      "approve(address,uint256)": {
        "details": "See {IERC20-approve}. NOTE: If `amount` is the maximum `uint256`, the allowance is not updated on `transferFrom`. This is semantically equivalent to an infinite approval. Requirements: - `spender` cannot be the zero address."
      },
      "balanceOf(address)": {
        "details": "See {IERC20-balanceOf}."
      },
      "decimals()": {
        "details": "Returns the number of decimals used to get its user representation. For example, if `decimals` equals `2`, a balance of `505` tokens should be displayed to a user as `5.05` (`505 / 10 ** 2`). Tokens usually opt for a value of 18, imitating the relationship between Ether and Wei. This is the value {ERC20} uses, unless this function is overridden; NOTE: This information is only used for _display_ purposes: it in no way affects any of the arithmetic of the contract, including {IERC20-balanceOf} and {IERC20-transfer}."
      },
      "decreaseAllowance(address,uint256)": {
        "details": "Atomically decreases the allowance granted to `spender` by the caller. This is an alternative to {approve} that can be used as a mitigation for problems described in {IERC20-approve}. Emits an {Approval} event indicating the updated allowance. Requirements: - `spender` cannot be the zero address. - `spender` must have allowance for the caller of at least `subtractedValue`."
      },
      "increaseAllowance(address,uint256)": {
        "details": "Atomically increases the allowance granted to `spender` by the caller. This is an alternative to {approve} that can be used as a mitigation for problems described in {IERC20-approve}. Emits an {Approval} event indicating the updated allowance. Requirements: - `spender` cannot be the zero address."
      },
      "name()": {
        "details": "Returns the name of the token."
      },
      "nonces(address)": {
        "details": "See {IERC20Permit-nonces}."
      },
      "onERC721Received(address,address,uint256,bytes)": {
        "details": "See {IERC721Receiver-onERC721Received}. Always returns `IERC721Receiver.onERC721Received.selector`."
      },
      "owner()": {
        "details": "Returns the address of the current owner."
      },
      "permit(address,address,uint256,uint256,uint8,bytes32,bytes32)": {
        "details": "See {IERC20Permit-permit}."
      },
      "renounceOwnership()": {
        "details": "Leaves the contract without owner. It will not be possible to call `onlyOwner` functions anymore. Can only be called by the current owner. NOTE: Renouncing ownership will leave the contract without an owner, thereby removing any functionality that is only available to the owner."
      },
      "symbol()": {
        "details": "Returns the symbol of the token, usually a shorter version of the name."
      },
      "totalSupply()": {
        "details": "See {IERC20-totalSupply}."
      },
      "transfer(address,uint256)": {
        "details": "See {IERC20-transfer}. Requirements: - `to` cannot be the zero address. - the caller must have a balance of at least `amount`."
      },
      "transferFrom(address,address,uint256)": {
        "details": "See {IERC20-transferFrom}. Emits an {Approval} event indicating the updated allowance. This is not required by the EIP. See the note at the beginning of {ERC20}. NOTE: Does not update the allowance if the current allowance is the maximum `uint256`. Requirements: - `from` and `to` cannot be the zero address. - `from` must have a balance of at least `amount`. - the caller must have allowance for ``from``'s tokens of at least `amount`."
      },
      "transferOwnership(address)": {
        "details": "Transfers ownership of the contract to a new account (`newOwner`). Can only be called by the current owner."
      }
    },
    "version": 1
  },
  "userdoc": {
    "kind": "user",
    "methods": {},
    "version": 1
  }
}